{
	"Contracts/Calculatorr.sol": {
		"Calculator": {
			"abi": [
				{
					"inputs": [
						{
							"internalType": "uint256",
							"name": "mint_price",
							"type": "uint256"
						},
						{
							"internalType": "uint256",
							"name": "royalty",
							"type": "uint256"
						}
					],
					"name": "MINT",
					"outputs": [],
					"stateMutability": "nonpayable",
					"type": "function"
				},
				{
					"inputs": [
						{
							"internalType": "uint256",
							"name": "price",
							"type": "uint256"
						}
					],
					"name": "SELL",
					"outputs": [],
					"stateMutability": "nonpayable",
					"type": "function"
				},
				{
					"inputs": [
						{
							"internalType": "uint256",
							"name": "x",
							"type": "uint256"
						},
						{
							"internalType": "uint256",
							"name": "y",
							"type": "uint256"
						}
					],
					"name": "add",
					"outputs": [],
					"stateMutability": "nonpayable",
					"type": "function"
				},
				{
					"inputs": [],
					"name": "check_balance",
					"outputs": [
						{
							"internalType": "uint256",
							"name": "",
							"type": "uint256"
						}
					],
					"stateMutability": "view",
					"type": "function"
				},
				{
					"inputs": [
						{
							"internalType": "uint256",
							"name": "x",
							"type": "uint256"
						},
						{
							"internalType": "uint256",
							"name": "y",
							"type": "uint256"
						}
					],
					"name": "devide",
					"outputs": [],
					"stateMutability": "nonpayable",
					"type": "function"
				},
				{
					"inputs": [],
					"name": "get",
					"outputs": [
						{
							"internalType": "uint256",
							"name": "",
							"type": "uint256"
						}
					],
					"stateMutability": "view",
					"type": "function"
				},
				{
					"inputs": [
						{
							"internalType": "uint256",
							"name": "x",
							"type": "uint256"
						},
						{
							"internalType": "uint256",
							"name": "y",
							"type": "uint256"
						}
					],
					"name": "multiply",
					"outputs": [],
					"stateMutability": "nonpayable",
					"type": "function"
				},
				{
					"inputs": [],
					"name": "passbook_viewer",
					"outputs": [
						{
							"internalType": "uint256[]",
							"name": "",
							"type": "uint256[]"
						}
					],
					"stateMutability": "view",
					"type": "function"
				},
				{
					"inputs": [],
					"name": "sell_history",
					"outputs": [
						{
							"internalType": "uint256[]",
							"name": "",
							"type": "uint256[]"
						}
					],
					"stateMutability": "view",
					"type": "function"
				},
				{
					"inputs": [],
					"name": "show_record",
					"outputs": [
						{
							"internalType": "uint256[]",
							"name": "",
							"type": "uint256[]"
						},
						{
							"internalType": "uint256[]",
							"name": "",
							"type": "uint256[]"
						},
						{
							"internalType": "uint256[]",
							"name": "",
							"type": "uint256[]"
						}
					],
					"stateMutability": "view",
					"type": "function"
				},
				{
					"inputs": [
						{
							"internalType": "uint256",
							"name": "x",
							"type": "uint256"
						},
						{
							"internalType": "uint256",
							"name": "y",
							"type": "uint256"
						}
					],
					"name": "sub",
					"outputs": [],
					"stateMutability": "nonpayable",
					"type": "function"
				}
			],
			"devdoc": {
				"kind": "dev",
				"methods": {},
				"version": 1
			},
			"evm": {
				"assembly": "    /* \"Contracts/Calculatorr.sol\":68:1857  contract Calculator {\r... */\n  mstore(0x40, 0x80)\n    /* \"Contracts/Calculatorr.sol\":134:135  0 */\n  0x00\n    /* \"Contracts/Calculatorr.sol\":111:135  uint account_balance = 0 */\n  0x01\n  sstore\n    /* \"Contracts/Calculatorr.sol\":159:160  0 */\n  0x00\n    /* \"Contracts/Calculatorr.sol\":141:160  uint sell_count = 0 */\n  0x02\n  sstore\n    /* \"Contracts/Calculatorr.sol\":235:236  0 */\n  0x00\n    /* \"Contracts/Calculatorr.sol\":211:236  uint royalty_fraction = 0 */\n  0x05\n  sstore\n    /* \"Contracts/Calculatorr.sol\":68:1857  contract Calculator {\r... */\n  callvalue\n  dup1\n  iszero\n  tag_1\n  jumpi\n  0x00\n  dup1\n  revert\ntag_1:\n  pop\n  dataSize(sub_0)\n  dup1\n  dataOffset(sub_0)\n  0x00\n  codecopy\n  0x00\n  return\nstop\n\nsub_0: assembly {\n        /* \"Contracts/Calculatorr.sol\":68:1857  contract Calculator {\r... */\n      mstore(0x40, 0x80)\n      callvalue\n      dup1\n      iszero\n      tag_1\n      jumpi\n      0x00\n      dup1\n      revert\n    tag_1:\n      pop\n      jumpi(tag_2, lt(calldatasize, 0x04))\n      shr(0xe0, calldataload(0x00))\n      dup1\n      0x98ba1d46\n      gt\n      tag_14\n      jumpi\n      dup1\n      0x98ba1d46\n      eq\n      tag_8\n      jumpi\n      dup1\n      0xb5042bae\n      eq\n      tag_9\n      jumpi\n      dup1\n      0xb6292e62\n      eq\n      tag_10\n      jumpi\n      dup1\n      0xb67d77c5\n      eq\n      tag_11\n      jumpi\n      dup1\n      0xd996551a\n      eq\n      tag_12\n      jumpi\n      dup1\n      0xe9581c62\n      eq\n      tag_13\n      jumpi\n      jump(tag_2)\n    tag_14:\n      dup1\n      0x06733c71\n      eq\n      tag_3\n      jumpi\n      dup1\n      0x165c4a16\n      eq\n      tag_4\n      jumpi\n      dup1\n      0x6d4ce63c\n      eq\n      tag_5\n      jumpi\n      dup1\n      0x6e9d856c\n      eq\n      tag_6\n      jumpi\n      dup1\n      0x771602f7\n      eq\n      tag_7\n      jumpi\n    tag_2:\n      0x00\n      dup1\n      revert\n        /* \"Contracts/Calculatorr.sol\":1627:1729  function sell_history() public view returns(\r... */\n    tag_3:\n      tag_15\n      tag_16\n      jump\t// in\n    tag_15:\n      mload(0x40)\n      tag_17\n      swap2\n      swap1\n      tag_18\n      jump\t// in\n    tag_17:\n      mload(0x40)\n      dup1\n      swap2\n      sub\n      swap1\n      return\n        /* \"Contracts/Calculatorr.sol\":567:641  function multiply(uint x, uint y) public {\r... */\n    tag_4:\n      tag_19\n      0x04\n      dup1\n      calldatasize\n      sub\n      dup2\n      add\n      swap1\n      tag_20\n      swap2\n      swap1\n      tag_21\n      jump\t// in\n    tag_20:\n      tag_22\n      jump\t// in\n    tag_19:\n      stop\n        /* \"Contracts/Calculatorr.sol\":786:858  function get() public view returns (uint) {\r... */\n    tag_5:\n      tag_23\n      tag_24\n      jump\t// in\n    tag_23:\n      mload(0x40)\n      tag_25\n      swap2\n      swap1\n      tag_26\n      jump\t// in\n    tag_25:\n      mload(0x40)\n      dup1\n      swap2\n      sub\n      swap1\n      return\n        /* \"Contracts/Calculatorr.sol\":864:1004  function show_record() public view returns(uint[] memory, uint[] memory, uint[] memory){\r... */\n    tag_6:\n      tag_27\n      tag_28\n      jump\t// in\n    tag_27:\n      mload(0x40)\n      tag_29\n      swap4\n      swap3\n      swap2\n      swap1\n      tag_30\n      jump\t// in\n    tag_29:\n      mload(0x40)\n      dup1\n      swap2\n      sub\n      swap1\n      return\n        /* \"Contracts/Calculatorr.sol\":333:482  function add(uint x, uint y) public {\r... */\n    tag_7:\n      tag_31\n      0x04\n      dup1\n      calldatasize\n      sub\n      dup2\n      add\n      swap1\n      tag_32\n      swap2\n      swap1\n      tag_21\n      jump\t// in\n    tag_32:\n      tag_33\n      jump\t// in\n    tag_31:\n      stop\n        /* \"Contracts/Calculatorr.sol\":1516:1615  function check_balance() public view returns (uint) {\r... */\n    tag_8:\n      tag_34\n      tag_35\n      jump\t// in\n    tag_34:\n      mload(0x40)\n      tag_36\n      swap2\n      swap1\n      tag_26\n      jump\t// in\n    tag_36:\n      mload(0x40)\n      dup1\n      swap2\n      sub\n      swap1\n      return\n        /* \"Contracts/Calculatorr.sol\":1016:1265  function SELL(uint price) public {\r... */\n    tag_9:\n      tag_37\n      0x04\n      dup1\n      calldatasize\n      sub\n      dup2\n      add\n      swap1\n      tag_38\n      swap2\n      swap1\n      tag_39\n      jump\t// in\n    tag_38:\n      tag_40\n      jump\t// in\n    tag_37:\n      stop\n        /* \"Contracts/Calculatorr.sol\":1741:1850  function passbook_viewer() public view returns(\r... */\n    tag_10:\n      tag_41\n      tag_42\n      jump\t// in\n    tag_41:\n      mload(0x40)\n      tag_43\n      swap2\n      swap1\n      tag_18\n      jump\t// in\n    tag_43:\n      mload(0x40)\n      dup1\n      swap2\n      sub\n      swap1\n      return\n        /* \"Contracts/Calculatorr.sol\":490:559  function sub(uint x, uint y) public {\r... */\n    tag_11:\n      tag_44\n      0x04\n      dup1\n      calldatasize\n      sub\n      dup2\n      add\n      swap1\n      tag_45\n      swap2\n      swap1\n      tag_21\n      jump\t// in\n    tag_45:\n      tag_46\n      jump\t// in\n    tag_44:\n      stop\n        /* \"Contracts/Calculatorr.sol\":1271:1510  function MINT(uint mint_price, uint royalty) public{\r... */\n    tag_12:\n      tag_47\n      0x04\n      dup1\n      calldatasize\n      sub\n      dup2\n      add\n      swap1\n      tag_48\n      swap2\n      swap1\n      tag_21\n      jump\t// in\n    tag_48:\n      tag_49\n      jump\t// in\n    tag_47:\n      stop\n        /* \"Contracts/Calculatorr.sol\":649:778  function devide(uint x, uint y) public {\r... */\n    tag_13:\n      tag_50\n      0x04\n      dup1\n      calldatasize\n      sub\n      dup2\n      add\n      swap1\n      tag_51\n      swap2\n      swap1\n      tag_21\n      jump\t// in\n    tag_51:\n      tag_52\n      jump\t// in\n    tag_50:\n      stop\n        /* \"Contracts/Calculatorr.sol\":1627:1729  function sell_history() public view returns(\r... */\n    tag_16:\n        /* \"Contracts/Calculatorr.sol\":1679:1692  uint[] memory */\n      0x60\n        /* \"Contracts/Calculatorr.sol\":1714:1718  data */\n      0x06\n        /* \"Contracts/Calculatorr.sol\":1706:1719  return (data) */\n      dup1\n      sload\n      dup1\n      0x20\n      mul\n      0x20\n      add\n      mload(0x40)\n      swap1\n      dup2\n      add\n      0x40\n      mstore\n      dup1\n      swap3\n      swap2\n      swap1\n      dup2\n      dup2\n      mstore\n      0x20\n      add\n      dup3\n      dup1\n      sload\n      dup1\n      iszero\n      tag_54\n      jumpi\n      0x20\n      mul\n      dup3\n      add\n      swap2\n      swap1\n      0x00\n      mstore\n      keccak256(0x00, 0x20)\n      swap1\n    tag_55:\n      dup2\n      sload\n      dup2\n      mstore\n      0x20\n      add\n      swap1\n      0x01\n      add\n      swap1\n      dup1\n      dup4\n      gt\n      tag_55\n      jumpi\n    tag_54:\n      pop\n      pop\n      pop\n      pop\n      pop\n      swap1\n      pop\n        /* \"Contracts/Calculatorr.sol\":1627:1729  function sell_history() public view returns(\r... */\n      swap1\n      jump\t// out\n        /* \"Contracts/Calculatorr.sol\":567:641  function multiply(uint x, uint y) public {\r... */\n    tag_22:\n        /* \"Contracts/Calculatorr.sol\":632:633  y */\n      dup1\n        /* \"Contracts/Calculatorr.sol\":628:629  x */\n      dup3\n        /* \"Contracts/Calculatorr.sol\":628:633  x * y */\n      tag_57\n      swap2\n      swap1\n      tag_58\n      jump\t// in\n    tag_57:\n        /* \"Contracts/Calculatorr.sol\":619:625  result */\n      0x00\n        /* \"Contracts/Calculatorr.sol\":619:633  result = x * y */\n      dup2\n      swap1\n      sstore\n      pop\n        /* \"Contracts/Calculatorr.sol\":567:641  function multiply(uint x, uint y) public {\r... */\n      pop\n      pop\n      jump\t// out\n        /* \"Contracts/Calculatorr.sol\":786:858  function get() public view returns (uint) {\r... */\n    tag_24:\n        /* \"Contracts/Calculatorr.sol\":822:826  uint */\n      0x00\n        /* \"Contracts/Calculatorr.sol\":846:852  result */\n      dup1\n      sload\n        /* \"Contracts/Calculatorr.sol\":839:852  return result */\n      swap1\n      pop\n        /* \"Contracts/Calculatorr.sol\":786:858  function get() public view returns (uint) {\r... */\n      swap1\n      jump\t// out\n        /* \"Contracts/Calculatorr.sol\":864:1004  function show_record() public view returns(uint[] memory, uint[] memory, uint[] memory){\r... */\n    tag_28:\n        /* \"Contracts/Calculatorr.sol\":907:920  uint[] memory */\n      0x60\n        /* \"Contracts/Calculatorr.sol\":922:935  uint[] memory */\n      dup1\n        /* \"Contracts/Calculatorr.sol\":937:950  uint[] memory */\n      0x60\n        /* \"Contracts/Calculatorr.sol\":970:974  inp1 */\n      0x08\n        /* \"Contracts/Calculatorr.sol\":976:980  inp2 */\n      0x09\n        /* \"Contracts/Calculatorr.sol\":982:985  out */\n      0x0a\n        /* \"Contracts/Calculatorr.sol\":962:986  return (inp1, inp2, out) */\n      dup3\n      dup1\n      sload\n      dup1\n      0x20\n      mul\n      0x20\n      add\n      mload(0x40)\n      swap1\n      dup2\n      add\n      0x40\n      mstore\n      dup1\n      swap3\n      swap2\n      swap1\n      dup2\n      dup2\n      mstore\n      0x20\n      add\n      dup3\n      dup1\n      sload\n      dup1\n      iszero\n      tag_61\n      jumpi\n      0x20\n      mul\n      dup3\n      add\n      swap2\n      swap1\n      0x00\n      mstore\n      keccak256(0x00, 0x20)\n      swap1\n    tag_62:\n      dup2\n      sload\n      dup2\n      mstore\n      0x20\n      add\n      swap1\n      0x01\n      add\n      swap1\n      dup1\n      dup4\n      gt\n      tag_62\n      jumpi\n    tag_61:\n      pop\n      pop\n      pop\n      pop\n      pop\n      swap3\n      pop\n      dup2\n      dup1\n      sload\n      dup1\n      0x20\n      mul\n      0x20\n      add\n      mload(0x40)\n      swap1\n      dup2\n      add\n      0x40\n      mstore\n      dup1\n      swap3\n      swap2\n      swap1\n      dup2\n      dup2\n      mstore\n      0x20\n      add\n      dup3\n      dup1\n      sload\n      dup1\n      iszero\n      tag_63\n      jumpi\n      0x20\n      mul\n      dup3\n      add\n      swap2\n      swap1\n      0x00\n      mstore\n      keccak256(0x00, 0x20)\n      swap1\n    tag_64:\n      dup2\n      sload\n      dup2\n      mstore\n      0x20\n      add\n      swap1\n      0x01\n      add\n      swap1\n      dup1\n      dup4\n      gt\n      tag_64\n      jumpi\n    tag_63:\n      pop\n      pop\n      pop\n      pop\n      pop\n      swap2\n      pop\n      dup1\n      dup1\n      sload\n      dup1\n      0x20\n      mul\n      0x20\n      add\n      mload(0x40)\n      swap1\n      dup2\n      add\n      0x40\n      mstore\n      dup1\n      swap3\n      swap2\n      swap1\n      dup2\n      dup2\n      mstore\n      0x20\n      add\n      dup3\n      dup1\n      sload\n      dup1\n      iszero\n      tag_65\n      jumpi\n      0x20\n      mul\n      dup3\n      add\n      swap2\n      swap1\n      0x00\n      mstore\n      keccak256(0x00, 0x20)\n      swap1\n    tag_66:\n      dup2\n      sload\n      dup2\n      mstore\n      0x20\n      add\n      swap1\n      0x01\n      add\n      swap1\n      dup1\n      dup4\n      gt\n      tag_66\n      jumpi\n    tag_65:\n      pop\n      pop\n      pop\n      pop\n      pop\n      swap1\n      pop\n      swap3\n      pop\n      swap3\n      pop\n      swap3\n      pop\n        /* \"Contracts/Calculatorr.sol\":864:1004  function show_record() public view returns(uint[] memory, uint[] memory, uint[] memory){\r... */\n      swap1\n      swap2\n      swap3\n      jump\t// out\n        /* \"Contracts/Calculatorr.sol\":333:482  function add(uint x, uint y) public {\r... */\n    tag_33:\n        /* \"Contracts/Calculatorr.sol\":393:394  y */\n      dup1\n        /* \"Contracts/Calculatorr.sol\":389:390  x */\n      dup3\n        /* \"Contracts/Calculatorr.sol\":389:394  x + y */\n      tag_68\n      swap2\n      swap1\n      tag_69\n      jump\t// in\n    tag_68:\n        /* \"Contracts/Calculatorr.sol\":380:386  result */\n      0x00\n        /* \"Contracts/Calculatorr.sol\":380:394  result = x + y */\n      dup2\n      swap1\n      sstore\n      pop\n        /* \"Contracts/Calculatorr.sol\":405:409  inp1 */\n      0x08\n        /* \"Contracts/Calculatorr.sol\":415:416  x */\n      dup3\n        /* \"Contracts/Calculatorr.sol\":405:417  inp1.push(x) */\n      swap1\n      dup1\n      0x01\n      dup2\n      sload\n      add\n      dup1\n      dup3\n      sstore\n      dup1\n      swap2\n      pop\n      pop\n      0x01\n      swap1\n      sub\n      swap1\n      0x00\n      mstore\n      keccak256(0x00, 0x20)\n      add\n      0x00\n      swap1\n      swap2\n      swap1\n      swap2\n      swap1\n      swap2\n      pop\n      sstore\n        /* \"Contracts/Calculatorr.sol\":428:432  inp2 */\n      0x09\n        /* \"Contracts/Calculatorr.sol\":438:439  y */\n      dup2\n        /* \"Contracts/Calculatorr.sol\":428:440  inp2.push(y) */\n      swap1\n      dup1\n      0x01\n      dup2\n      sload\n      add\n      dup1\n      dup3\n      sstore\n      dup1\n      swap2\n      pop\n      pop\n      0x01\n      swap1\n      sub\n      swap1\n      0x00\n      mstore\n      keccak256(0x00, 0x20)\n      add\n      0x00\n      swap1\n      swap2\n      swap1\n      swap2\n      swap1\n      swap2\n      pop\n      sstore\n        /* \"Contracts/Calculatorr.sol\":451:454  out */\n      0x0a\n        /* \"Contracts/Calculatorr.sol\":460:466  result */\n      sload(0x00)\n        /* \"Contracts/Calculatorr.sol\":451:467  out.push(result) */\n      swap1\n      dup1\n      0x01\n      dup2\n      sload\n      add\n      dup1\n      dup3\n      sstore\n      dup1\n      swap2\n      pop\n      pop\n      0x01\n      swap1\n      sub\n      swap1\n      0x00\n      mstore\n      keccak256(0x00, 0x20)\n      add\n      0x00\n      swap1\n      swap2\n      swap1\n      swap2\n      swap1\n      swap2\n      pop\n      sstore\n        /* \"Contracts/Calculatorr.sol\":333:482  function add(uint x, uint y) public {\r... */\n      pop\n      pop\n      jump\t// out\n        /* \"Contracts/Calculatorr.sol\":1516:1615  function check_balance() public view returns (uint) {\r... */\n    tag_35:\n        /* \"Contracts/Calculatorr.sol\":1562:1566  uint */\n      0x00\n        /* \"Contracts/Calculatorr.sol\":1586:1601  account_balance */\n      sload(0x01)\n        /* \"Contracts/Calculatorr.sol\":1579:1601  return account_balance */\n      swap1\n      pop\n        /* \"Contracts/Calculatorr.sol\":1516:1615  function check_balance() public view returns (uint) {\r... */\n      swap1\n      jump\t// out\n        /* \"Contracts/Calculatorr.sol\":1016:1265  function SELL(uint price) public {\r... */\n    tag_40:\n        /* \"Contracts/Calculatorr.sol\":1083:1093  1000000000 */\n      0x3b9aca00\n        /* \"Contracts/Calculatorr.sol\":1076:1081  price */\n      dup2\n        /* \"Contracts/Calculatorr.sol\":1076:1094  price*(1000000000) */\n      tag_75\n      swap2\n      swap1\n      tag_58\n      jump\t// in\n    tag_75:\n        /* \"Contracts/Calculatorr.sol\":1060:1073  current_price */\n      0x03\n        /* \"Contracts/Calculatorr.sol\":1060:1094  current_price = price*(1000000000) */\n      dup2\n      swap1\n      sstore\n      pop\n        /* \"Contracts/Calculatorr.sol\":1176:1179  100 */\n      0x64\n        /* \"Contracts/Calculatorr.sol\":1161:1174  current_price */\n      sload(0x03)\n        /* \"Contracts/Calculatorr.sol\":1142:1158  royalty_fraction */\n      sload(0x05)\n        /* \"Contracts/Calculatorr.sol\":1142:1174  royalty_fraction * current_price */\n      tag_76\n      swap2\n      swap1\n      tag_58\n      jump\t// in\n    tag_76:\n        /* \"Contracts/Calculatorr.sol\":1141:1179  (royalty_fraction * current_price)/100 */\n      tag_77\n      swap2\n      swap1\n      tag_78\n      jump\t// in\n    tag_77:\n        /* \"Contracts/Calculatorr.sol\":1123:1138  account_balance */\n      sload(0x01)\n        /* \"Contracts/Calculatorr.sol\":1123:1179  account_balance + (royalty_fraction * current_price)/100 */\n      tag_79\n      swap2\n      swap1\n      tag_69\n      jump\t// in\n    tag_79:\n        /* \"Contracts/Calculatorr.sol\":1105:1120  account_balance */\n      0x01\n        /* \"Contracts/Calculatorr.sol\":1105:1179  account_balance = account_balance + (royalty_fraction * current_price)/100 */\n      dup2\n      swap1\n      sstore\n      pop\n        /* \"Contracts/Calculatorr.sol\":1190:1194  data */\n      0x06\n        /* \"Contracts/Calculatorr.sol\":1200:1205  price */\n      dup2\n        /* \"Contracts/Calculatorr.sol\":1190:1206  data.push(price) */\n      swap1\n      dup1\n      0x01\n      dup2\n      sload\n      add\n      dup1\n      dup3\n      sstore\n      dup1\n      swap2\n      pop\n      pop\n      0x01\n      swap1\n      sub\n      swap1\n      0x00\n      mstore\n      keccak256(0x00, 0x20)\n      add\n      0x00\n      swap1\n      swap2\n      swap1\n      swap2\n      swap1\n      swap2\n      pop\n      sstore\n        /* \"Contracts/Calculatorr.sol\":1217:1225  passbook */\n      0x07\n        /* \"Contracts/Calculatorr.sol\":1231:1246  account_balance */\n      sload(0x01)\n        /* \"Contracts/Calculatorr.sol\":1217:1247  passbook.push(account_balance) */\n      swap1\n      dup1\n      0x01\n      dup2\n      sload\n      add\n      dup1\n      dup3\n      sstore\n      dup1\n      swap2\n      pop\n      pop\n      0x01\n      swap1\n      sub\n      swap1\n      0x00\n      mstore\n      keccak256(0x00, 0x20)\n      add\n      0x00\n      swap1\n      swap2\n      swap1\n      swap2\n      swap1\n      swap2\n      pop\n      sstore\n        /* \"Contracts/Calculatorr.sol\":1016:1265  function SELL(uint price) public {\r... */\n      pop\n      jump\t// out\n        /* \"Contracts/Calculatorr.sol\":1741:1850  function passbook_viewer() public view returns(\r... */\n    tag_42:\n        /* \"Contracts/Calculatorr.sol\":1796:1809  uint[] memory */\n      0x60\n        /* \"Contracts/Calculatorr.sol\":1831:1839  passbook */\n      0x07\n        /* \"Contracts/Calculatorr.sol\":1823:1840  return (passbook) */\n      dup1\n      sload\n      dup1\n      0x20\n      mul\n      0x20\n      add\n      mload(0x40)\n      swap1\n      dup2\n      add\n      0x40\n      mstore\n      dup1\n      swap3\n      swap2\n      swap1\n      dup2\n      dup2\n      mstore\n      0x20\n      add\n      dup3\n      dup1\n      sload\n      dup1\n      iszero\n      tag_83\n      jumpi\n      0x20\n      mul\n      dup3\n      add\n      swap2\n      swap1\n      0x00\n      mstore\n      keccak256(0x00, 0x20)\n      swap1\n    tag_84:\n      dup2\n      sload\n      dup2\n      mstore\n      0x20\n      add\n      swap1\n      0x01\n      add\n      swap1\n      dup1\n      dup4\n      gt\n      tag_84\n      jumpi\n    tag_83:\n      pop\n      pop\n      pop\n      pop\n      pop\n      swap1\n      pop\n        /* \"Contracts/Calculatorr.sol\":1741:1850  function passbook_viewer() public view returns(\r... */\n      swap1\n      jump\t// out\n        /* \"Contracts/Calculatorr.sol\":490:559  function sub(uint x, uint y) public {\r... */\n    tag_46:\n        /* \"Contracts/Calculatorr.sol\":550:551  y */\n      dup1\n        /* \"Contracts/Calculatorr.sol\":546:547  x */\n      dup3\n        /* \"Contracts/Calculatorr.sol\":546:551  x - y */\n      tag_86\n      swap2\n      swap1\n      tag_87\n      jump\t// in\n    tag_86:\n        /* \"Contracts/Calculatorr.sol\":537:543  result */\n      0x00\n        /* \"Contracts/Calculatorr.sol\":537:551  result = x - y */\n      dup2\n      swap1\n      sstore\n      pop\n        /* \"Contracts/Calculatorr.sol\":490:559  function sub(uint x, uint y) public {\r... */\n      pop\n      pop\n      jump\t// out\n        /* \"Contracts/Calculatorr.sol\":1271:1510  function MINT(uint mint_price, uint royalty) public{\r... */\n    tag_49:\n        /* \"Contracts/Calculatorr.sol\":1381:1391  1000000000 */\n      0x3b9aca00\n        /* \"Contracts/Calculatorr.sol\":1369:1379  mint_price */\n      dup3\n        /* \"Contracts/Calculatorr.sol\":1369:1392  mint_price*(1000000000) */\n      tag_89\n      swap2\n      swap1\n      tag_58\n      jump\t// in\n    tag_89:\n        /* \"Contracts/Calculatorr.sol\":1351:1366  account_balance */\n      sload(0x01)\n        /* \"Contracts/Calculatorr.sol\":1351:1392  account_balance + mint_price*(1000000000) */\n      tag_90\n      swap2\n      swap1\n      tag_69\n      jump\t// in\n    tag_90:\n        /* \"Contracts/Calculatorr.sol\":1333:1348  account_balance */\n      0x01\n        /* \"Contracts/Calculatorr.sol\":1333:1392  account_balance = account_balance + mint_price*(1000000000) */\n      dup2\n      swap1\n      sstore\n      pop\n        /* \"Contracts/Calculatorr.sol\":1422:1429  royalty */\n      dup1\n        /* \"Contracts/Calculatorr.sol\":1403:1419  royalty_fraction */\n      0x05\n        /* \"Contracts/Calculatorr.sol\":1403:1429  royalty_fraction = royalty */\n      dup2\n      swap1\n      sstore\n      pop\n        /* \"Contracts/Calculatorr.sol\":1440:1444  data */\n      0x06\n        /* \"Contracts/Calculatorr.sol\":1450:1460  mint_price */\n      dup3\n        /* \"Contracts/Calculatorr.sol\":1440:1461  data.push(mint_price) */\n      swap1\n      dup1\n      0x01\n      dup2\n      sload\n      add\n      dup1\n      dup3\n      sstore\n      dup1\n      swap2\n      pop\n      pop\n      0x01\n      swap1\n      sub\n      swap1\n      0x00\n      mstore\n      keccak256(0x00, 0x20)\n      add\n      0x00\n      swap1\n      swap2\n      swap1\n      swap2\n      swap1\n      swap2\n      pop\n      sstore\n        /* \"Contracts/Calculatorr.sol\":1472:1480  passbook */\n      0x07\n        /* \"Contracts/Calculatorr.sol\":1486:1501  account_balance */\n      sload(0x01)\n        /* \"Contracts/Calculatorr.sol\":1472:1502  passbook.push(account_balance) */\n      swap1\n      dup1\n      0x01\n      dup2\n      sload\n      add\n      dup1\n      dup3\n      sstore\n      dup1\n      swap2\n      pop\n      pop\n      0x01\n      swap1\n      sub\n      swap1\n      0x00\n      mstore\n      keccak256(0x00, 0x20)\n      add\n      0x00\n      swap1\n      swap2\n      swap1\n      swap2\n      swap1\n      swap2\n      pop\n      sstore\n        /* \"Contracts/Calculatorr.sol\":1271:1510  function MINT(uint mint_price, uint royalty) public{\r... */\n      pop\n      pop\n      jump\t// out\n        /* \"Contracts/Calculatorr.sol\":649:778  function devide(uint x, uint y) public {\r... */\n    tag_52:\n        /* \"Contracts/Calculatorr.sol\":710:711  0 */\n      0x00\n        /* \"Contracts/Calculatorr.sol\":707:708  y */\n      dup2\n        /* \"Contracts/Calculatorr.sol\":707:711  y!=0 */\n      eq\n      iszero\n        /* \"Contracts/Calculatorr.sol\":699:745  require(y!=0, 'Division by zero not possible') */\n      tag_94\n      jumpi\n      mload(0x40)\n      0x08c379a000000000000000000000000000000000000000000000000000000000\n      dup2\n      mstore\n      0x04\n      add\n      tag_95\n      swap1\n      tag_96\n      jump\t// in\n    tag_95:\n      mload(0x40)\n      dup1\n      swap2\n      sub\n      swap1\n      revert\n    tag_94:\n        /* \"Contracts/Calculatorr.sol\":769:770  y */\n      dup1\n        /* \"Contracts/Calculatorr.sol\":765:766  x */\n      dup3\n        /* \"Contracts/Calculatorr.sol\":765:770  x / y */\n      tag_97\n      swap2\n      swap1\n      tag_78\n      jump\t// in\n    tag_97:\n        /* \"Contracts/Calculatorr.sol\":756:762  result */\n      0x00\n        /* \"Contracts/Calculatorr.sol\":756:770  result = x / y */\n      dup2\n      swap1\n      sstore\n      pop\n        /* \"Contracts/Calculatorr.sol\":649:778  function devide(uint x, uint y) public {\r... */\n      pop\n      pop\n      jump\t// out\n        /* \"#utility.yul\":7:146   */\n    tag_99:\n        /* \"#utility.yul\":53:58   */\n      0x00\n        /* \"#utility.yul\":91:97   */\n      dup2\n        /* \"#utility.yul\":78:98   */\n      calldataload\n        /* \"#utility.yul\":69:98   */\n      swap1\n      pop\n        /* \"#utility.yul\":107:140   */\n      tag_101\n        /* \"#utility.yul\":134:139   */\n      dup2\n        /* \"#utility.yul\":107:140   */\n      tag_102\n      jump\t// in\n    tag_101:\n        /* \"#utility.yul\":7:146   */\n      swap3\n      swap2\n      pop\n      pop\n      jump\t// out\n        /* \"#utility.yul\":152:481   */\n    tag_39:\n        /* \"#utility.yul\":211:217   */\n      0x00\n        /* \"#utility.yul\":260:262   */\n      0x20\n        /* \"#utility.yul\":248:257   */\n      dup3\n        /* \"#utility.yul\":239:246   */\n      dup5\n        /* \"#utility.yul\":235:258   */\n      sub\n        /* \"#utility.yul\":231:263   */\n      slt\n        /* \"#utility.yul\":228:347   */\n      iszero\n      tag_104\n      jumpi\n        /* \"#utility.yul\":266:345   */\n      tag_105\n      tag_106\n      jump\t// in\n    tag_105:\n        /* \"#utility.yul\":228:347   */\n    tag_104:\n        /* \"#utility.yul\":386:387   */\n      0x00\n        /* \"#utility.yul\":411:464   */\n      tag_107\n        /* \"#utility.yul\":456:463   */\n      dup5\n        /* \"#utility.yul\":447:453   */\n      dup3\n        /* \"#utility.yul\":436:445   */\n      dup6\n        /* \"#utility.yul\":432:454   */\n      add\n        /* \"#utility.yul\":411:464   */\n      tag_99\n      jump\t// in\n    tag_107:\n        /* \"#utility.yul\":401:464   */\n      swap2\n      pop\n        /* \"#utility.yul\":357:474   */\n      pop\n        /* \"#utility.yul\":152:481   */\n      swap3\n      swap2\n      pop\n      pop\n      jump\t// out\n        /* \"#utility.yul\":487:961   */\n    tag_21:\n        /* \"#utility.yul\":555:561   */\n      0x00\n        /* \"#utility.yul\":563:569   */\n      dup1\n        /* \"#utility.yul\":612:614   */\n      0x40\n        /* \"#utility.yul\":600:609   */\n      dup4\n        /* \"#utility.yul\":591:598   */\n      dup6\n        /* \"#utility.yul\":587:610   */\n      sub\n        /* \"#utility.yul\":583:615   */\n      slt\n        /* \"#utility.yul\":580:699   */\n      iszero\n      tag_109\n      jumpi\n        /* \"#utility.yul\":618:697   */\n      tag_110\n      tag_106\n      jump\t// in\n    tag_110:\n        /* \"#utility.yul\":580:699   */\n    tag_109:\n        /* \"#utility.yul\":738:739   */\n      0x00\n        /* \"#utility.yul\":763:816   */\n      tag_111\n        /* \"#utility.yul\":808:815   */\n      dup6\n        /* \"#utility.yul\":799:805   */\n      dup3\n        /* \"#utility.yul\":788:797   */\n      dup7\n        /* \"#utility.yul\":784:806   */\n      add\n        /* \"#utility.yul\":763:816   */\n      tag_99\n      jump\t// in\n    tag_111:\n        /* \"#utility.yul\":753:816   */\n      swap3\n      pop\n        /* \"#utility.yul\":709:826   */\n      pop\n        /* \"#utility.yul\":865:867   */\n      0x20\n        /* \"#utility.yul\":891:944   */\n      tag_112\n        /* \"#utility.yul\":936:943   */\n      dup6\n        /* \"#utility.yul\":927:933   */\n      dup3\n        /* \"#utility.yul\":916:925   */\n      dup7\n        /* \"#utility.yul\":912:934   */\n      add\n        /* \"#utility.yul\":891:944   */\n      tag_99\n      jump\t// in\n    tag_112:\n        /* \"#utility.yul\":881:944   */\n      swap2\n      pop\n        /* \"#utility.yul\":836:954   */\n      pop\n        /* \"#utility.yul\":487:961   */\n      swap3\n      pop\n      swap3\n      swap1\n      pop\n      jump\t// out\n        /* \"#utility.yul\":967:1146   */\n    tag_113:\n        /* \"#utility.yul\":1036:1046   */\n      0x00\n        /* \"#utility.yul\":1057:1103   */\n      tag_115\n        /* \"#utility.yul\":1099:1102   */\n      dup4\n        /* \"#utility.yul\":1091:1097   */\n      dup4\n        /* \"#utility.yul\":1057:1103   */\n      tag_116\n      jump\t// in\n    tag_115:\n        /* \"#utility.yul\":1135:1139   */\n      0x20\n        /* \"#utility.yul\":1130:1133   */\n      dup4\n        /* \"#utility.yul\":1126:1140   */\n      add\n        /* \"#utility.yul\":1112:1140   */\n      swap1\n      pop\n        /* \"#utility.yul\":967:1146   */\n      swap3\n      swap2\n      pop\n      pop\n      jump\t// out\n        /* \"#utility.yul\":1182:1914   */\n    tag_117:\n        /* \"#utility.yul\":1301:1304   */\n      0x00\n        /* \"#utility.yul\":1330:1384   */\n      tag_119\n        /* \"#utility.yul\":1378:1383   */\n      dup3\n        /* \"#utility.yul\":1330:1384   */\n      tag_120\n      jump\t// in\n    tag_119:\n        /* \"#utility.yul\":1400:1486   */\n      tag_121\n        /* \"#utility.yul\":1479:1485   */\n      dup2\n        /* \"#utility.yul\":1474:1477   */\n      dup6\n        /* \"#utility.yul\":1400:1486   */\n      tag_122\n      jump\t// in\n    tag_121:\n        /* \"#utility.yul\":1393:1486   */\n      swap4\n      pop\n        /* \"#utility.yul\":1510:1566   */\n      tag_123\n        /* \"#utility.yul\":1560:1565   */\n      dup4\n        /* \"#utility.yul\":1510:1566   */\n      tag_124\n      jump\t// in\n    tag_123:\n        /* \"#utility.yul\":1589:1596   */\n      dup1\n        /* \"#utility.yul\":1620:1621   */\n      0x00\n        /* \"#utility.yul\":1605:1889   */\n    tag_125:\n        /* \"#utility.yul\":1630:1636   */\n      dup4\n        /* \"#utility.yul\":1627:1628   */\n      dup2\n        /* \"#utility.yul\":1624:1637   */\n      lt\n        /* \"#utility.yul\":1605:1889   */\n      iszero\n      tag_127\n      jumpi\n        /* \"#utility.yul\":1706:1712   */\n      dup2\n        /* \"#utility.yul\":1700:1713   */\n      mload\n        /* \"#utility.yul\":1733:1796   */\n      tag_128\n        /* \"#utility.yul\":1792:1795   */\n      dup9\n        /* \"#utility.yul\":1777:1790   */\n      dup3\n        /* \"#utility.yul\":1733:1796   */\n      tag_113\n      jump\t// in\n    tag_128:\n        /* \"#utility.yul\":1726:1796   */\n      swap8\n      pop\n        /* \"#utility.yul\":1819:1879   */\n      tag_129\n        /* \"#utility.yul\":1872:1878   */\n      dup4\n        /* \"#utility.yul\":1819:1879   */\n      tag_130\n      jump\t// in\n    tag_129:\n        /* \"#utility.yul\":1809:1879   */\n      swap3\n      pop\n        /* \"#utility.yul\":1665:1889   */\n      pop\n        /* \"#utility.yul\":1652:1653   */\n      0x01\n        /* \"#utility.yul\":1649:1650   */\n      dup2\n        /* \"#utility.yul\":1645:1654   */\n      add\n        /* \"#utility.yul\":1640:1654   */\n      swap1\n      pop\n        /* \"#utility.yul\":1605:1889   */\n      jump(tag_125)\n    tag_127:\n        /* \"#utility.yul\":1609:1623   */\n      pop\n        /* \"#utility.yul\":1905:1908   */\n      dup6\n        /* \"#utility.yul\":1898:1908   */\n      swap4\n      pop\n        /* \"#utility.yul\":1306:1914   */\n      pop\n      pop\n      pop\n        /* \"#utility.yul\":1182:1914   */\n      swap3\n      swap2\n      pop\n      pop\n      jump\t// out\n        /* \"#utility.yul\":1920:2286   */\n    tag_131:\n        /* \"#utility.yul\":2062:2065   */\n      0x00\n        /* \"#utility.yul\":2083:2150   */\n      tag_133\n        /* \"#utility.yul\":2147:2149   */\n      0x1d\n        /* \"#utility.yul\":2142:2145   */\n      dup4\n        /* \"#utility.yul\":2083:2150   */\n      tag_134\n      jump\t// in\n    tag_133:\n        /* \"#utility.yul\":2076:2150   */\n      swap2\n      pop\n        /* \"#utility.yul\":2159:2252   */\n      tag_135\n        /* \"#utility.yul\":2248:2251   */\n      dup3\n        /* \"#utility.yul\":2159:2252   */\n      tag_136\n      jump\t// in\n    tag_135:\n        /* \"#utility.yul\":2277:2279   */\n      0x20\n        /* \"#utility.yul\":2272:2275   */\n      dup3\n        /* \"#utility.yul\":2268:2280   */\n      add\n        /* \"#utility.yul\":2261:2280   */\n      swap1\n      pop\n        /* \"#utility.yul\":1920:2286   */\n      swap2\n      swap1\n      pop\n      jump\t// out\n        /* \"#utility.yul\":2292:2400   */\n    tag_116:\n        /* \"#utility.yul\":2369:2393   */\n      tag_138\n        /* \"#utility.yul\":2387:2392   */\n      dup2\n        /* \"#utility.yul\":2369:2393   */\n      tag_139\n      jump\t// in\n    tag_138:\n        /* \"#utility.yul\":2364:2367   */\n      dup3\n        /* \"#utility.yul\":2357:2394   */\n      mstore\n        /* \"#utility.yul\":2292:2400   */\n      pop\n      pop\n      jump\t// out\n        /* \"#utility.yul\":2406:2524   */\n    tag_140:\n        /* \"#utility.yul\":2493:2517   */\n      tag_142\n        /* \"#utility.yul\":2511:2516   */\n      dup2\n        /* \"#utility.yul\":2493:2517   */\n      tag_139\n      jump\t// in\n    tag_142:\n        /* \"#utility.yul\":2488:2491   */\n      dup3\n        /* \"#utility.yul\":2481:2518   */\n      mstore\n        /* \"#utility.yul\":2406:2524   */\n      pop\n      pop\n      jump\t// out\n        /* \"#utility.yul\":2530:2903   */\n    tag_18:\n        /* \"#utility.yul\":2673:2677   */\n      0x00\n        /* \"#utility.yul\":2711:2713   */\n      0x20\n        /* \"#utility.yul\":2700:2709   */\n      dup3\n        /* \"#utility.yul\":2696:2714   */\n      add\n        /* \"#utility.yul\":2688:2714   */\n      swap1\n      pop\n        /* \"#utility.yul\":2760:2769   */\n      dup2\n        /* \"#utility.yul\":2754:2758   */\n      dup2\n        /* \"#utility.yul\":2750:2770   */\n      sub\n        /* \"#utility.yul\":2746:2747   */\n      0x00\n        /* \"#utility.yul\":2735:2744   */\n      dup4\n        /* \"#utility.yul\":2731:2748   */\n      add\n        /* \"#utility.yul\":2724:2771   */\n      mstore\n        /* \"#utility.yul\":2788:2896   */\n      tag_144\n        /* \"#utility.yul\":2891:2895   */\n      dup2\n        /* \"#utility.yul\":2882:2888   */\n      dup5\n        /* \"#utility.yul\":2788:2896   */\n      tag_117\n      jump\t// in\n    tag_144:\n        /* \"#utility.yul\":2780:2896   */\n      swap1\n      pop\n        /* \"#utility.yul\":2530:2903   */\n      swap3\n      swap2\n      pop\n      pop\n      jump\t// out\n        /* \"#utility.yul\":2909:3804   */\n    tag_30:\n        /* \"#utility.yul\":3208:3212   */\n      0x00\n        /* \"#utility.yul\":3246:3248   */\n      0x60\n        /* \"#utility.yul\":3235:3244   */\n      dup3\n        /* \"#utility.yul\":3231:3249   */\n      add\n        /* \"#utility.yul\":3223:3249   */\n      swap1\n      pop\n        /* \"#utility.yul\":3295:3304   */\n      dup2\n        /* \"#utility.yul\":3289:3293   */\n      dup2\n        /* \"#utility.yul\":3285:3305   */\n      sub\n        /* \"#utility.yul\":3281:3282   */\n      0x00\n        /* \"#utility.yul\":3270:3279   */\n      dup4\n        /* \"#utility.yul\":3266:3283   */\n      add\n        /* \"#utility.yul\":3259:3306   */\n      mstore\n        /* \"#utility.yul\":3323:3431   */\n      tag_146\n        /* \"#utility.yul\":3426:3430   */\n      dup2\n        /* \"#utility.yul\":3417:3423   */\n      dup7\n        /* \"#utility.yul\":3323:3431   */\n      tag_117\n      jump\t// in\n    tag_146:\n        /* \"#utility.yul\":3315:3431   */\n      swap1\n      pop\n        /* \"#utility.yul\":3478:3487   */\n      dup2\n        /* \"#utility.yul\":3472:3476   */\n      dup2\n        /* \"#utility.yul\":3468:3488   */\n      sub\n        /* \"#utility.yul\":3463:3465   */\n      0x20\n        /* \"#utility.yul\":3452:3461   */\n      dup4\n        /* \"#utility.yul\":3448:3466   */\n      add\n        /* \"#utility.yul\":3441:3489   */\n      mstore\n        /* \"#utility.yul\":3506:3614   */\n      tag_147\n        /* \"#utility.yul\":3609:3613   */\n      dup2\n        /* \"#utility.yul\":3600:3606   */\n      dup6\n        /* \"#utility.yul\":3506:3614   */\n      tag_117\n      jump\t// in\n    tag_147:\n        /* \"#utility.yul\":3498:3614   */\n      swap1\n      pop\n        /* \"#utility.yul\":3661:3670   */\n      dup2\n        /* \"#utility.yul\":3655:3659   */\n      dup2\n        /* \"#utility.yul\":3651:3671   */\n      sub\n        /* \"#utility.yul\":3646:3648   */\n      0x40\n        /* \"#utility.yul\":3635:3644   */\n      dup4\n        /* \"#utility.yul\":3631:3649   */\n      add\n        /* \"#utility.yul\":3624:3672   */\n      mstore\n        /* \"#utility.yul\":3689:3797   */\n      tag_148\n        /* \"#utility.yul\":3792:3796   */\n      dup2\n        /* \"#utility.yul\":3783:3789   */\n      dup5\n        /* \"#utility.yul\":3689:3797   */\n      tag_117\n      jump\t// in\n    tag_148:\n        /* \"#utility.yul\":3681:3797   */\n      swap1\n      pop\n        /* \"#utility.yul\":2909:3804   */\n      swap5\n      swap4\n      pop\n      pop\n      pop\n      pop\n      jump\t// out\n        /* \"#utility.yul\":3810:4229   */\n    tag_96:\n        /* \"#utility.yul\":3976:3980   */\n      0x00\n        /* \"#utility.yul\":4014:4016   */\n      0x20\n        /* \"#utility.yul\":4003:4012   */\n      dup3\n        /* \"#utility.yul\":3999:4017   */\n      add\n        /* \"#utility.yul\":3991:4017   */\n      swap1\n      pop\n        /* \"#utility.yul\":4063:4072   */\n      dup2\n        /* \"#utility.yul\":4057:4061   */\n      dup2\n        /* \"#utility.yul\":4053:4073   */\n      sub\n        /* \"#utility.yul\":4049:4050   */\n      0x00\n        /* \"#utility.yul\":4038:4047   */\n      dup4\n        /* \"#utility.yul\":4034:4051   */\n      add\n        /* \"#utility.yul\":4027:4074   */\n      mstore\n        /* \"#utility.yul\":4091:4222   */\n      tag_150\n        /* \"#utility.yul\":4217:4221   */\n      dup2\n        /* \"#utility.yul\":4091:4222   */\n      tag_131\n      jump\t// in\n    tag_150:\n        /* \"#utility.yul\":4083:4222   */\n      swap1\n      pop\n        /* \"#utility.yul\":3810:4229   */\n      swap2\n      swap1\n      pop\n      jump\t// out\n        /* \"#utility.yul\":4235:4457   */\n    tag_26:\n        /* \"#utility.yul\":4328:4332   */\n      0x00\n        /* \"#utility.yul\":4366:4368   */\n      0x20\n        /* \"#utility.yul\":4355:4364   */\n      dup3\n        /* \"#utility.yul\":4351:4369   */\n      add\n        /* \"#utility.yul\":4343:4369   */\n      swap1\n      pop\n        /* \"#utility.yul\":4379:4450   */\n      tag_152\n        /* \"#utility.yul\":4447:4448   */\n      0x00\n        /* \"#utility.yul\":4436:4445   */\n      dup4\n        /* \"#utility.yul\":4432:4449   */\n      add\n        /* \"#utility.yul\":4423:4429   */\n      dup5\n        /* \"#utility.yul\":4379:4450   */\n      tag_140\n      jump\t// in\n    tag_152:\n        /* \"#utility.yul\":4235:4457   */\n      swap3\n      swap2\n      pop\n      pop\n      jump\t// out\n        /* \"#utility.yul\":4544:4676   */\n    tag_124:\n        /* \"#utility.yul\":4611:4615   */\n      0x00\n        /* \"#utility.yul\":4634:4637   */\n      dup2\n        /* \"#utility.yul\":4626:4637   */\n      swap1\n      pop\n        /* \"#utility.yul\":4664:4668   */\n      0x20\n        /* \"#utility.yul\":4659:4662   */\n      dup3\n        /* \"#utility.yul\":4655:4669   */\n      add\n        /* \"#utility.yul\":4647:4669   */\n      swap1\n      pop\n        /* \"#utility.yul\":4544:4676   */\n      swap2\n      swap1\n      pop\n      jump\t// out\n        /* \"#utility.yul\":4682:4796   */\n    tag_120:\n        /* \"#utility.yul\":4749:4755   */\n      0x00\n        /* \"#utility.yul\":4783:4788   */\n      dup2\n        /* \"#utility.yul\":4777:4789   */\n      mload\n        /* \"#utility.yul\":4767:4789   */\n      swap1\n      pop\n        /* \"#utility.yul\":4682:4796   */\n      swap2\n      swap1\n      pop\n      jump\t// out\n        /* \"#utility.yul\":4802:4915   */\n    tag_130:\n        /* \"#utility.yul\":4872:4876   */\n      0x00\n        /* \"#utility.yul\":4904:4908   */\n      0x20\n        /* \"#utility.yul\":4899:4902   */\n      dup3\n        /* \"#utility.yul\":4895:4909   */\n      add\n        /* \"#utility.yul\":4887:4909   */\n      swap1\n      pop\n        /* \"#utility.yul\":4802:4915   */\n      swap2\n      swap1\n      pop\n      jump\t// out\n        /* \"#utility.yul\":4921:5105   */\n    tag_122:\n        /* \"#utility.yul\":5020:5031   */\n      0x00\n        /* \"#utility.yul\":5054:5060   */\n      dup3\n        /* \"#utility.yul\":5049:5052   */\n      dup3\n        /* \"#utility.yul\":5042:5061   */\n      mstore\n        /* \"#utility.yul\":5094:5098   */\n      0x20\n        /* \"#utility.yul\":5089:5092   */\n      dup3\n        /* \"#utility.yul\":5085:5099   */\n      add\n        /* \"#utility.yul\":5070:5099   */\n      swap1\n      pop\n        /* \"#utility.yul\":4921:5105   */\n      swap3\n      swap2\n      pop\n      pop\n      jump\t// out\n        /* \"#utility.yul\":5111:5280   */\n    tag_134:\n        /* \"#utility.yul\":5195:5206   */\n      0x00\n        /* \"#utility.yul\":5229:5235   */\n      dup3\n        /* \"#utility.yul\":5224:5227   */\n      dup3\n        /* \"#utility.yul\":5217:5236   */\n      mstore\n        /* \"#utility.yul\":5269:5273   */\n      0x20\n        /* \"#utility.yul\":5264:5267   */\n      dup3\n        /* \"#utility.yul\":5260:5274   */\n      add\n        /* \"#utility.yul\":5245:5274   */\n      swap1\n      pop\n        /* \"#utility.yul\":5111:5280   */\n      swap3\n      swap2\n      pop\n      pop\n      jump\t// out\n        /* \"#utility.yul\":5286:5591   */\n    tag_69:\n        /* \"#utility.yul\":5326:5329   */\n      0x00\n        /* \"#utility.yul\":5345:5365   */\n      tag_161\n        /* \"#utility.yul\":5363:5364   */\n      dup3\n        /* \"#utility.yul\":5345:5365   */\n      tag_139\n      jump\t// in\n    tag_161:\n        /* \"#utility.yul\":5340:5365   */\n      swap2\n      pop\n        /* \"#utility.yul\":5379:5399   */\n      tag_162\n        /* \"#utility.yul\":5397:5398   */\n      dup4\n        /* \"#utility.yul\":5379:5399   */\n      tag_139\n      jump\t// in\n    tag_162:\n        /* \"#utility.yul\":5374:5399   */\n      swap3\n      pop\n        /* \"#utility.yul\":5533:5534   */\n      dup3\n        /* \"#utility.yul\":5465:5531   */\n      0xffffffffffffffffffffffffffffffffffffffffffffffffffffffffffffffff\n        /* \"#utility.yul\":5461:5535   */\n      sub\n        /* \"#utility.yul\":5458:5459   */\n      dup3\n        /* \"#utility.yul\":5455:5536   */\n      gt\n        /* \"#utility.yul\":5452:5559   */\n      iszero\n      tag_163\n      jumpi\n        /* \"#utility.yul\":5539:5557   */\n      tag_164\n      tag_165\n      jump\t// in\n    tag_164:\n        /* \"#utility.yul\":5452:5559   */\n    tag_163:\n        /* \"#utility.yul\":5583:5584   */\n      dup3\n        /* \"#utility.yul\":5580:5581   */\n      dup3\n        /* \"#utility.yul\":5576:5585   */\n      add\n        /* \"#utility.yul\":5569:5585   */\n      swap1\n      pop\n        /* \"#utility.yul\":5286:5591   */\n      swap3\n      swap2\n      pop\n      pop\n      jump\t// out\n        /* \"#utility.yul\":5597:5782   */\n    tag_78:\n        /* \"#utility.yul\":5637:5638   */\n      0x00\n        /* \"#utility.yul\":5654:5674   */\n      tag_167\n        /* \"#utility.yul\":5672:5673   */\n      dup3\n        /* \"#utility.yul\":5654:5674   */\n      tag_139\n      jump\t// in\n    tag_167:\n        /* \"#utility.yul\":5649:5674   */\n      swap2\n      pop\n        /* \"#utility.yul\":5688:5708   */\n      tag_168\n        /* \"#utility.yul\":5706:5707   */\n      dup4\n        /* \"#utility.yul\":5688:5708   */\n      tag_139\n      jump\t// in\n    tag_168:\n        /* \"#utility.yul\":5683:5708   */\n      swap3\n      pop\n        /* \"#utility.yul\":5727:5728   */\n      dup3\n        /* \"#utility.yul\":5717:5752   */\n      tag_169\n      jumpi\n        /* \"#utility.yul\":5732:5750   */\n      tag_170\n      tag_171\n      jump\t// in\n    tag_170:\n        /* \"#utility.yul\":5717:5752   */\n    tag_169:\n        /* \"#utility.yul\":5774:5775   */\n      dup3\n        /* \"#utility.yul\":5771:5772   */\n      dup3\n        /* \"#utility.yul\":5767:5776   */\n      div\n        /* \"#utility.yul\":5762:5776   */\n      swap1\n      pop\n        /* \"#utility.yul\":5597:5782   */\n      swap3\n      swap2\n      pop\n      pop\n      jump\t// out\n        /* \"#utility.yul\":5788:6136   */\n    tag_58:\n        /* \"#utility.yul\":5828:5835   */\n      0x00\n        /* \"#utility.yul\":5851:5871   */\n      tag_173\n        /* \"#utility.yul\":5869:5870   */\n      dup3\n        /* \"#utility.yul\":5851:5871   */\n      tag_139\n      jump\t// in\n    tag_173:\n        /* \"#utility.yul\":5846:5871   */\n      swap2\n      pop\n        /* \"#utility.yul\":5885:5905   */\n      tag_174\n        /* \"#utility.yul\":5903:5904   */\n      dup4\n        /* \"#utility.yul\":5885:5905   */\n      tag_139\n      jump\t// in\n    tag_174:\n        /* \"#utility.yul\":5880:5905   */\n      swap3\n      pop\n        /* \"#utility.yul\":6073:6074   */\n      dup2\n        /* \"#utility.yul\":6005:6071   */\n      0xffffffffffffffffffffffffffffffffffffffffffffffffffffffffffffffff\n        /* \"#utility.yul\":6001:6075   */\n      div\n        /* \"#utility.yul\":5998:5999   */\n      dup4\n        /* \"#utility.yul\":5995:6076   */\n      gt\n        /* \"#utility.yul\":5990:5991   */\n      dup3\n        /* \"#utility.yul\":5983:5992   */\n      iszero\n        /* \"#utility.yul\":5976:5993   */\n      iszero\n        /* \"#utility.yul\":5972:6077   */\n      and\n        /* \"#utility.yul\":5969:6100   */\n      iszero\n      tag_175\n      jumpi\n        /* \"#utility.yul\":6080:6098   */\n      tag_176\n      tag_165\n      jump\t// in\n    tag_176:\n        /* \"#utility.yul\":5969:6100   */\n    tag_175:\n        /* \"#utility.yul\":6128:6129   */\n      dup3\n        /* \"#utility.yul\":6125:6126   */\n      dup3\n        /* \"#utility.yul\":6121:6130   */\n      mul\n        /* \"#utility.yul\":6110:6130   */\n      swap1\n      pop\n        /* \"#utility.yul\":5788:6136   */\n      swap3\n      swap2\n      pop\n      pop\n      jump\t// out\n        /* \"#utility.yul\":6142:6333   */\n    tag_87:\n        /* \"#utility.yul\":6182:6186   */\n      0x00\n        /* \"#utility.yul\":6202:6222   */\n      tag_178\n        /* \"#utility.yul\":6220:6221   */\n      dup3\n        /* \"#utility.yul\":6202:6222   */\n      tag_139\n      jump\t// in\n    tag_178:\n        /* \"#utility.yul\":6197:6222   */\n      swap2\n      pop\n        /* \"#utility.yul\":6236:6256   */\n      tag_179\n        /* \"#utility.yul\":6254:6255   */\n      dup4\n        /* \"#utility.yul\":6236:6256   */\n      tag_139\n      jump\t// in\n    tag_179:\n        /* \"#utility.yul\":6231:6256   */\n      swap3\n      pop\n        /* \"#utility.yul\":6275:6276   */\n      dup3\n        /* \"#utility.yul\":6272:6273   */\n      dup3\n        /* \"#utility.yul\":6269:6277   */\n      lt\n        /* \"#utility.yul\":6266:6300   */\n      iszero\n      tag_180\n      jumpi\n        /* \"#utility.yul\":6280:6298   */\n      tag_181\n      tag_165\n      jump\t// in\n    tag_181:\n        /* \"#utility.yul\":6266:6300   */\n    tag_180:\n        /* \"#utility.yul\":6325:6326   */\n      dup3\n        /* \"#utility.yul\":6322:6323   */\n      dup3\n        /* \"#utility.yul\":6318:6327   */\n      sub\n        /* \"#utility.yul\":6310:6327   */\n      swap1\n      pop\n        /* \"#utility.yul\":6142:6333   */\n      swap3\n      swap2\n      pop\n      pop\n      jump\t// out\n        /* \"#utility.yul\":6339:6416   */\n    tag_139:\n        /* \"#utility.yul\":6376:6383   */\n      0x00\n        /* \"#utility.yul\":6405:6410   */\n      dup2\n        /* \"#utility.yul\":6394:6410   */\n      swap1\n      pop\n        /* \"#utility.yul\":6339:6416   */\n      swap2\n      swap1\n      pop\n      jump\t// out\n        /* \"#utility.yul\":6422:6602   */\n    tag_165:\n        /* \"#utility.yul\":6470:6547   */\n      0x4e487b7100000000000000000000000000000000000000000000000000000000\n        /* \"#utility.yul\":6467:6468   */\n      0x00\n        /* \"#utility.yul\":6460:6548   */\n      mstore\n        /* \"#utility.yul\":6567:6571   */\n      0x11\n        /* \"#utility.yul\":6564:6565   */\n      0x04\n        /* \"#utility.yul\":6557:6572   */\n      mstore\n        /* \"#utility.yul\":6591:6595   */\n      0x24\n        /* \"#utility.yul\":6588:6589   */\n      0x00\n        /* \"#utility.yul\":6581:6596   */\n      revert\n        /* \"#utility.yul\":6608:6788   */\n    tag_171:\n        /* \"#utility.yul\":6656:6733   */\n      0x4e487b7100000000000000000000000000000000000000000000000000000000\n        /* \"#utility.yul\":6653:6654   */\n      0x00\n        /* \"#utility.yul\":6646:6734   */\n      mstore\n        /* \"#utility.yul\":6753:6757   */\n      0x12\n        /* \"#utility.yul\":6750:6751   */\n      0x04\n        /* \"#utility.yul\":6743:6758   */\n      mstore\n        /* \"#utility.yul\":6777:6781   */\n      0x24\n        /* \"#utility.yul\":6774:6775   */\n      0x00\n        /* \"#utility.yul\":6767:6782   */\n      revert\n        /* \"#utility.yul\":6917:7034   */\n    tag_106:\n        /* \"#utility.yul\":7026:7027   */\n      0x00\n        /* \"#utility.yul\":7023:7024   */\n      dup1\n        /* \"#utility.yul\":7016:7028   */\n      revert\n        /* \"#utility.yul\":7040:7219   */\n    tag_136:\n        /* \"#utility.yul\":7180:7211   */\n      0x4469766973696f6e206279207a65726f206e6f7420706f737369626c65000000\n        /* \"#utility.yul\":7176:7177   */\n      0x00\n        /* \"#utility.yul\":7168:7174   */\n      dup3\n        /* \"#utility.yul\":7164:7178   */\n      add\n        /* \"#utility.yul\":7157:7212   */\n      mstore\n        /* \"#utility.yul\":7040:7219   */\n      pop\n      jump\t// out\n        /* \"#utility.yul\":7225:7347   */\n    tag_102:\n        /* \"#utility.yul\":7298:7322   */\n      tag_190\n        /* \"#utility.yul\":7316:7321   */\n      dup2\n        /* \"#utility.yul\":7298:7322   */\n      tag_139\n      jump\t// in\n    tag_190:\n        /* \"#utility.yul\":7291:7296   */\n      dup2\n        /* \"#utility.yul\":7288:7323   */\n      eq\n        /* \"#utility.yul\":7278:7341   */\n      tag_191\n      jumpi\n        /* \"#utility.yul\":7337:7338   */\n      0x00\n        /* \"#utility.yul\":7334:7335   */\n      dup1\n        /* \"#utility.yul\":7327:7339   */\n      revert\n        /* \"#utility.yul\":7278:7341   */\n    tag_191:\n        /* \"#utility.yul\":7225:7347   */\n      pop\n      jump\t// out\n\n    auxdata: 0xa2646970667358221220dc7498902de11bf943dfedf4e8cd0a273c3efeb290366ba1702541fd9829bfe264736f6c63430008070033\n}\n",
				"bytecode": {
					"linkReferences": {},
					"object": "608060405260006001556000600255600060055534801561001f57600080fd5b50610a188061002f6000396000f3fe608060405234801561001057600080fd5b50600436106100a95760003560e01c806398ba1d461161007157806398ba1d4614610142578063b5042bae14610160578063b6292e621461017c578063b67d77c51461019a578063d996551a146101b6578063e9581c62146101d2576100a9565b806306733c71146100ae578063165c4a16146100cc5780636d4ce63c146100e85780636e9d856c14610106578063771602f714610126575b600080fd5b6100b66101ee565b6040516100c3919061072d565b60405180910390f35b6100e660048036038101906100e19190610636565b610246565b005b6100f061025c565b6040516100fd91906107bb565b60405180910390f35b61010e610265565b60405161011d9392919061074f565b60405180910390f35b610140600480360381019061013b9190610636565b610371565b005b61014a610404565b60405161015791906107bb565b60405180910390f35b61017a60048036038101906101759190610609565b61040e565b005b6101846104aa565b604051610191919061072d565b60405180910390f35b6101b460048036038101906101af9190610636565b610502565b005b6101d060048036038101906101cb9190610636565b610518565b005b6101ec60048036038101906101e79190610636565b61059a565b005b6060600680548060200260200160405190810160405280929190818152602001828054801561023c57602002820191906000526020600020905b815481526020019060010190808311610228575b5050505050905090565b808261025291906108a7565b6000819055505050565b60008054905090565b606080606060086009600a828054806020026020016040519081016040528092919081815260200182805480156102bb57602002820191906000526020600020905b8154815260200190600101908083116102a7575b505050505092508180548060200260200160405190810160405280929190818152602001828054801561030d57602002820191906000526020600020905b8154815260200190600101908083116102f9575b505050505091508080548060200260200160405190810160405280929190818152602001828054801561035f57602002820191906000526020600020905b81548152602001906001019080831161034b575b50505050509050925092509250909192565b808261037d9190610820565b60008190555060088290806001815401808255809150506001900390600052602060002001600090919091909150556009819080600181540180825580915050600190039060005260206000200160009091909190915055600a60005490806001815401808255809150506001900390600052602060002001600090919091909150555050565b6000600154905090565b633b9aca008161041e91906108a7565b600381905550606460035460055461043691906108a7565b6104409190610876565b60015461044d9190610820565b60018190555060068190806001815401808255809150506001900390600052602060002001600090919091909150556007600154908060018154018082558091505060019003906000526020600020016000909190919091505550565b606060078054806020026020016040519081016040528092919081815260200182805480156104f857602002820191906000526020600020905b8154815260200190600101908083116104e4575b5050505050905090565b808261050e9190610901565b6000819055505050565b633b9aca008261052891906108a7565b6001546105359190610820565b600181905550806005819055506006829080600181540180825580915050600190039060005260206000200160009091909190915055600760015490806001815401808255809150506001900390600052602060002001600090919091909150555050565b60008114156105de576040517f08c379a00000000000000000000000000000000000000000000000000000000081526004016105d59061079b565b60405180910390fd5b80826105ea9190610876565b6000819055505050565b600081359050610603816109cb565b92915050565b60006020828403121561061f5761061e61099d565b5b600061062d848285016105f4565b91505092915050565b6000806040838503121561064d5761064c61099d565b5b600061065b858286016105f4565b925050602061066c858286016105f4565b9150509250929050565b6000610682838361070f565b60208301905092915050565b6000610699826107e6565b6106a381856107fe565b93506106ae836107d6565b8060005b838110156106df5781516106c68882610676565b97506106d1836107f1565b9250506001810190506106b2565b5085935050505092915050565b60006106f9601d8361080f565b9150610704826109a2565b602082019050919050565b61071881610935565b82525050565b61072781610935565b82525050565b60006020820190508181036000830152610747818461068e565b905092915050565b60006060820190508181036000830152610769818661068e565b9050818103602083015261077d818561068e565b90508181036040830152610791818461068e565b9050949350505050565b600060208201905081810360008301526107b4816106ec565b9050919050565b60006020820190506107d0600083018461071e565b92915050565b6000819050602082019050919050565b600081519050919050565b6000602082019050919050565b600082825260208201905092915050565b600082825260208201905092915050565b600061082b82610935565b915061083683610935565b9250827fffffffffffffffffffffffffffffffffffffffffffffffffffffffffffffffff0382111561086b5761086a61093f565b5b828201905092915050565b600061088182610935565b915061088c83610935565b92508261089c5761089b61096e565b5b828204905092915050565b60006108b282610935565b91506108bd83610935565b9250817fffffffffffffffffffffffffffffffffffffffffffffffffffffffffffffffff04831182151516156108f6576108f561093f565b5b828202905092915050565b600061090c82610935565b915061091783610935565b92508282101561092a5761092961093f565b5b828203905092915050565b6000819050919050565b7f4e487b7100000000000000000000000000000000000000000000000000000000600052601160045260246000fd5b7f4e487b7100000000000000000000000000000000000000000000000000000000600052601260045260246000fd5b600080fd5b7f4469766973696f6e206279207a65726f206e6f7420706f737369626c65000000600082015250565b6109d481610935565b81146109df57600080fd5b5056fea2646970667358221220dc7498902de11bf943dfedf4e8cd0a273c3efeb290366ba1702541fd9829bfe264736f6c63430008070033",
					"opcodes": "PUSH1 0x80 PUSH1 0x40 MSTORE PUSH1 0x0 PUSH1 0x1 SSTORE PUSH1 0x0 PUSH1 0x2 SSTORE PUSH1 0x0 PUSH1 0x5 SSTORE CALLVALUE DUP1 ISZERO PUSH2 0x1F JUMPI PUSH1 0x0 DUP1 REVERT JUMPDEST POP PUSH2 0xA18 DUP1 PUSH2 0x2F PUSH1 0x0 CODECOPY PUSH1 0x0 RETURN INVALID PUSH1 0x80 PUSH1 0x40 MSTORE CALLVALUE DUP1 ISZERO PUSH2 0x10 JUMPI PUSH1 0x0 DUP1 REVERT JUMPDEST POP PUSH1 0x4 CALLDATASIZE LT PUSH2 0xA9 JUMPI PUSH1 0x0 CALLDATALOAD PUSH1 0xE0 SHR DUP1 PUSH4 0x98BA1D46 GT PUSH2 0x71 JUMPI DUP1 PUSH4 0x98BA1D46 EQ PUSH2 0x142 JUMPI DUP1 PUSH4 0xB5042BAE EQ PUSH2 0x160 JUMPI DUP1 PUSH4 0xB6292E62 EQ PUSH2 0x17C JUMPI DUP1 PUSH4 0xB67D77C5 EQ PUSH2 0x19A JUMPI DUP1 PUSH4 0xD996551A EQ PUSH2 0x1B6 JUMPI DUP1 PUSH4 0xE9581C62 EQ PUSH2 0x1D2 JUMPI PUSH2 0xA9 JUMP JUMPDEST DUP1 PUSH4 0x6733C71 EQ PUSH2 0xAE JUMPI DUP1 PUSH4 0x165C4A16 EQ PUSH2 0xCC JUMPI DUP1 PUSH4 0x6D4CE63C EQ PUSH2 0xE8 JUMPI DUP1 PUSH4 0x6E9D856C EQ PUSH2 0x106 JUMPI DUP1 PUSH4 0x771602F7 EQ PUSH2 0x126 JUMPI JUMPDEST PUSH1 0x0 DUP1 REVERT JUMPDEST PUSH2 0xB6 PUSH2 0x1EE JUMP JUMPDEST PUSH1 0x40 MLOAD PUSH2 0xC3 SWAP2 SWAP1 PUSH2 0x72D JUMP JUMPDEST PUSH1 0x40 MLOAD DUP1 SWAP2 SUB SWAP1 RETURN JUMPDEST PUSH2 0xE6 PUSH1 0x4 DUP1 CALLDATASIZE SUB DUP2 ADD SWAP1 PUSH2 0xE1 SWAP2 SWAP1 PUSH2 0x636 JUMP JUMPDEST PUSH2 0x246 JUMP JUMPDEST STOP JUMPDEST PUSH2 0xF0 PUSH2 0x25C JUMP JUMPDEST PUSH1 0x40 MLOAD PUSH2 0xFD SWAP2 SWAP1 PUSH2 0x7BB JUMP JUMPDEST PUSH1 0x40 MLOAD DUP1 SWAP2 SUB SWAP1 RETURN JUMPDEST PUSH2 0x10E PUSH2 0x265 JUMP JUMPDEST PUSH1 0x40 MLOAD PUSH2 0x11D SWAP4 SWAP3 SWAP2 SWAP1 PUSH2 0x74F JUMP JUMPDEST PUSH1 0x40 MLOAD DUP1 SWAP2 SUB SWAP1 RETURN JUMPDEST PUSH2 0x140 PUSH1 0x4 DUP1 CALLDATASIZE SUB DUP2 ADD SWAP1 PUSH2 0x13B SWAP2 SWAP1 PUSH2 0x636 JUMP JUMPDEST PUSH2 0x371 JUMP JUMPDEST STOP JUMPDEST PUSH2 0x14A PUSH2 0x404 JUMP JUMPDEST PUSH1 0x40 MLOAD PUSH2 0x157 SWAP2 SWAP1 PUSH2 0x7BB JUMP JUMPDEST PUSH1 0x40 MLOAD DUP1 SWAP2 SUB SWAP1 RETURN JUMPDEST PUSH2 0x17A PUSH1 0x4 DUP1 CALLDATASIZE SUB DUP2 ADD SWAP1 PUSH2 0x175 SWAP2 SWAP1 PUSH2 0x609 JUMP JUMPDEST PUSH2 0x40E JUMP JUMPDEST STOP JUMPDEST PUSH2 0x184 PUSH2 0x4AA JUMP JUMPDEST PUSH1 0x40 MLOAD PUSH2 0x191 SWAP2 SWAP1 PUSH2 0x72D JUMP JUMPDEST PUSH1 0x40 MLOAD DUP1 SWAP2 SUB SWAP1 RETURN JUMPDEST PUSH2 0x1B4 PUSH1 0x4 DUP1 CALLDATASIZE SUB DUP2 ADD SWAP1 PUSH2 0x1AF SWAP2 SWAP1 PUSH2 0x636 JUMP JUMPDEST PUSH2 0x502 JUMP JUMPDEST STOP JUMPDEST PUSH2 0x1D0 PUSH1 0x4 DUP1 CALLDATASIZE SUB DUP2 ADD SWAP1 PUSH2 0x1CB SWAP2 SWAP1 PUSH2 0x636 JUMP JUMPDEST PUSH2 0x518 JUMP JUMPDEST STOP JUMPDEST PUSH2 0x1EC PUSH1 0x4 DUP1 CALLDATASIZE SUB DUP2 ADD SWAP1 PUSH2 0x1E7 SWAP2 SWAP1 PUSH2 0x636 JUMP JUMPDEST PUSH2 0x59A JUMP JUMPDEST STOP JUMPDEST PUSH1 0x60 PUSH1 0x6 DUP1 SLOAD DUP1 PUSH1 0x20 MUL PUSH1 0x20 ADD PUSH1 0x40 MLOAD SWAP1 DUP2 ADD PUSH1 0x40 MSTORE DUP1 SWAP3 SWAP2 SWAP1 DUP2 DUP2 MSTORE PUSH1 0x20 ADD DUP3 DUP1 SLOAD DUP1 ISZERO PUSH2 0x23C JUMPI PUSH1 0x20 MUL DUP3 ADD SWAP2 SWAP1 PUSH1 0x0 MSTORE PUSH1 0x20 PUSH1 0x0 KECCAK256 SWAP1 JUMPDEST DUP2 SLOAD DUP2 MSTORE PUSH1 0x20 ADD SWAP1 PUSH1 0x1 ADD SWAP1 DUP1 DUP4 GT PUSH2 0x228 JUMPI JUMPDEST POP POP POP POP POP SWAP1 POP SWAP1 JUMP JUMPDEST DUP1 DUP3 PUSH2 0x252 SWAP2 SWAP1 PUSH2 0x8A7 JUMP JUMPDEST PUSH1 0x0 DUP2 SWAP1 SSTORE POP POP POP JUMP JUMPDEST PUSH1 0x0 DUP1 SLOAD SWAP1 POP SWAP1 JUMP JUMPDEST PUSH1 0x60 DUP1 PUSH1 0x60 PUSH1 0x8 PUSH1 0x9 PUSH1 0xA DUP3 DUP1 SLOAD DUP1 PUSH1 0x20 MUL PUSH1 0x20 ADD PUSH1 0x40 MLOAD SWAP1 DUP2 ADD PUSH1 0x40 MSTORE DUP1 SWAP3 SWAP2 SWAP1 DUP2 DUP2 MSTORE PUSH1 0x20 ADD DUP3 DUP1 SLOAD DUP1 ISZERO PUSH2 0x2BB JUMPI PUSH1 0x20 MUL DUP3 ADD SWAP2 SWAP1 PUSH1 0x0 MSTORE PUSH1 0x20 PUSH1 0x0 KECCAK256 SWAP1 JUMPDEST DUP2 SLOAD DUP2 MSTORE PUSH1 0x20 ADD SWAP1 PUSH1 0x1 ADD SWAP1 DUP1 DUP4 GT PUSH2 0x2A7 JUMPI JUMPDEST POP POP POP POP POP SWAP3 POP DUP2 DUP1 SLOAD DUP1 PUSH1 0x20 MUL PUSH1 0x20 ADD PUSH1 0x40 MLOAD SWAP1 DUP2 ADD PUSH1 0x40 MSTORE DUP1 SWAP3 SWAP2 SWAP1 DUP2 DUP2 MSTORE PUSH1 0x20 ADD DUP3 DUP1 SLOAD DUP1 ISZERO PUSH2 0x30D JUMPI PUSH1 0x20 MUL DUP3 ADD SWAP2 SWAP1 PUSH1 0x0 MSTORE PUSH1 0x20 PUSH1 0x0 KECCAK256 SWAP1 JUMPDEST DUP2 SLOAD DUP2 MSTORE PUSH1 0x20 ADD SWAP1 PUSH1 0x1 ADD SWAP1 DUP1 DUP4 GT PUSH2 0x2F9 JUMPI JUMPDEST POP POP POP POP POP SWAP2 POP DUP1 DUP1 SLOAD DUP1 PUSH1 0x20 MUL PUSH1 0x20 ADD PUSH1 0x40 MLOAD SWAP1 DUP2 ADD PUSH1 0x40 MSTORE DUP1 SWAP3 SWAP2 SWAP1 DUP2 DUP2 MSTORE PUSH1 0x20 ADD DUP3 DUP1 SLOAD DUP1 ISZERO PUSH2 0x35F JUMPI PUSH1 0x20 MUL DUP3 ADD SWAP2 SWAP1 PUSH1 0x0 MSTORE PUSH1 0x20 PUSH1 0x0 KECCAK256 SWAP1 JUMPDEST DUP2 SLOAD DUP2 MSTORE PUSH1 0x20 ADD SWAP1 PUSH1 0x1 ADD SWAP1 DUP1 DUP4 GT PUSH2 0x34B JUMPI JUMPDEST POP POP POP POP POP SWAP1 POP SWAP3 POP SWAP3 POP SWAP3 POP SWAP1 SWAP2 SWAP3 JUMP JUMPDEST DUP1 DUP3 PUSH2 0x37D SWAP2 SWAP1 PUSH2 0x820 JUMP JUMPDEST PUSH1 0x0 DUP2 SWAP1 SSTORE POP PUSH1 0x8 DUP3 SWAP1 DUP1 PUSH1 0x1 DUP2 SLOAD ADD DUP1 DUP3 SSTORE DUP1 SWAP2 POP POP PUSH1 0x1 SWAP1 SUB SWAP1 PUSH1 0x0 MSTORE PUSH1 0x20 PUSH1 0x0 KECCAK256 ADD PUSH1 0x0 SWAP1 SWAP2 SWAP1 SWAP2 SWAP1 SWAP2 POP SSTORE PUSH1 0x9 DUP2 SWAP1 DUP1 PUSH1 0x1 DUP2 SLOAD ADD DUP1 DUP3 SSTORE DUP1 SWAP2 POP POP PUSH1 0x1 SWAP1 SUB SWAP1 PUSH1 0x0 MSTORE PUSH1 0x20 PUSH1 0x0 KECCAK256 ADD PUSH1 0x0 SWAP1 SWAP2 SWAP1 SWAP2 SWAP1 SWAP2 POP SSTORE PUSH1 0xA PUSH1 0x0 SLOAD SWAP1 DUP1 PUSH1 0x1 DUP2 SLOAD ADD DUP1 DUP3 SSTORE DUP1 SWAP2 POP POP PUSH1 0x1 SWAP1 SUB SWAP1 PUSH1 0x0 MSTORE PUSH1 0x20 PUSH1 0x0 KECCAK256 ADD PUSH1 0x0 SWAP1 SWAP2 SWAP1 SWAP2 SWAP1 SWAP2 POP SSTORE POP POP JUMP JUMPDEST PUSH1 0x0 PUSH1 0x1 SLOAD SWAP1 POP SWAP1 JUMP JUMPDEST PUSH4 0x3B9ACA00 DUP2 PUSH2 0x41E SWAP2 SWAP1 PUSH2 0x8A7 JUMP JUMPDEST PUSH1 0x3 DUP2 SWAP1 SSTORE POP PUSH1 0x64 PUSH1 0x3 SLOAD PUSH1 0x5 SLOAD PUSH2 0x436 SWAP2 SWAP1 PUSH2 0x8A7 JUMP JUMPDEST PUSH2 0x440 SWAP2 SWAP1 PUSH2 0x876 JUMP JUMPDEST PUSH1 0x1 SLOAD PUSH2 0x44D SWAP2 SWAP1 PUSH2 0x820 JUMP JUMPDEST PUSH1 0x1 DUP2 SWAP1 SSTORE POP PUSH1 0x6 DUP2 SWAP1 DUP1 PUSH1 0x1 DUP2 SLOAD ADD DUP1 DUP3 SSTORE DUP1 SWAP2 POP POP PUSH1 0x1 SWAP1 SUB SWAP1 PUSH1 0x0 MSTORE PUSH1 0x20 PUSH1 0x0 KECCAK256 ADD PUSH1 0x0 SWAP1 SWAP2 SWAP1 SWAP2 SWAP1 SWAP2 POP SSTORE PUSH1 0x7 PUSH1 0x1 SLOAD SWAP1 DUP1 PUSH1 0x1 DUP2 SLOAD ADD DUP1 DUP3 SSTORE DUP1 SWAP2 POP POP PUSH1 0x1 SWAP1 SUB SWAP1 PUSH1 0x0 MSTORE PUSH1 0x20 PUSH1 0x0 KECCAK256 ADD PUSH1 0x0 SWAP1 SWAP2 SWAP1 SWAP2 SWAP1 SWAP2 POP SSTORE POP JUMP JUMPDEST PUSH1 0x60 PUSH1 0x7 DUP1 SLOAD DUP1 PUSH1 0x20 MUL PUSH1 0x20 ADD PUSH1 0x40 MLOAD SWAP1 DUP2 ADD PUSH1 0x40 MSTORE DUP1 SWAP3 SWAP2 SWAP1 DUP2 DUP2 MSTORE PUSH1 0x20 ADD DUP3 DUP1 SLOAD DUP1 ISZERO PUSH2 0x4F8 JUMPI PUSH1 0x20 MUL DUP3 ADD SWAP2 SWAP1 PUSH1 0x0 MSTORE PUSH1 0x20 PUSH1 0x0 KECCAK256 SWAP1 JUMPDEST DUP2 SLOAD DUP2 MSTORE PUSH1 0x20 ADD SWAP1 PUSH1 0x1 ADD SWAP1 DUP1 DUP4 GT PUSH2 0x4E4 JUMPI JUMPDEST POP POP POP POP POP SWAP1 POP SWAP1 JUMP JUMPDEST DUP1 DUP3 PUSH2 0x50E SWAP2 SWAP1 PUSH2 0x901 JUMP JUMPDEST PUSH1 0x0 DUP2 SWAP1 SSTORE POP POP POP JUMP JUMPDEST PUSH4 0x3B9ACA00 DUP3 PUSH2 0x528 SWAP2 SWAP1 PUSH2 0x8A7 JUMP JUMPDEST PUSH1 0x1 SLOAD PUSH2 0x535 SWAP2 SWAP1 PUSH2 0x820 JUMP JUMPDEST PUSH1 0x1 DUP2 SWAP1 SSTORE POP DUP1 PUSH1 0x5 DUP2 SWAP1 SSTORE POP PUSH1 0x6 DUP3 SWAP1 DUP1 PUSH1 0x1 DUP2 SLOAD ADD DUP1 DUP3 SSTORE DUP1 SWAP2 POP POP PUSH1 0x1 SWAP1 SUB SWAP1 PUSH1 0x0 MSTORE PUSH1 0x20 PUSH1 0x0 KECCAK256 ADD PUSH1 0x0 SWAP1 SWAP2 SWAP1 SWAP2 SWAP1 SWAP2 POP SSTORE PUSH1 0x7 PUSH1 0x1 SLOAD SWAP1 DUP1 PUSH1 0x1 DUP2 SLOAD ADD DUP1 DUP3 SSTORE DUP1 SWAP2 POP POP PUSH1 0x1 SWAP1 SUB SWAP1 PUSH1 0x0 MSTORE PUSH1 0x20 PUSH1 0x0 KECCAK256 ADD PUSH1 0x0 SWAP1 SWAP2 SWAP1 SWAP2 SWAP1 SWAP2 POP SSTORE POP POP JUMP JUMPDEST PUSH1 0x0 DUP2 EQ ISZERO PUSH2 0x5DE JUMPI PUSH1 0x40 MLOAD PUSH32 0x8C379A000000000000000000000000000000000000000000000000000000000 DUP2 MSTORE PUSH1 0x4 ADD PUSH2 0x5D5 SWAP1 PUSH2 0x79B JUMP JUMPDEST PUSH1 0x40 MLOAD DUP1 SWAP2 SUB SWAP1 REVERT JUMPDEST DUP1 DUP3 PUSH2 0x5EA SWAP2 SWAP1 PUSH2 0x876 JUMP JUMPDEST PUSH1 0x0 DUP2 SWAP1 SSTORE POP POP POP JUMP JUMPDEST PUSH1 0x0 DUP2 CALLDATALOAD SWAP1 POP PUSH2 0x603 DUP2 PUSH2 0x9CB JUMP JUMPDEST SWAP3 SWAP2 POP POP JUMP JUMPDEST PUSH1 0x0 PUSH1 0x20 DUP3 DUP5 SUB SLT ISZERO PUSH2 0x61F JUMPI PUSH2 0x61E PUSH2 0x99D JUMP JUMPDEST JUMPDEST PUSH1 0x0 PUSH2 0x62D DUP5 DUP3 DUP6 ADD PUSH2 0x5F4 JUMP JUMPDEST SWAP2 POP POP SWAP3 SWAP2 POP POP JUMP JUMPDEST PUSH1 0x0 DUP1 PUSH1 0x40 DUP4 DUP6 SUB SLT ISZERO PUSH2 0x64D JUMPI PUSH2 0x64C PUSH2 0x99D JUMP JUMPDEST JUMPDEST PUSH1 0x0 PUSH2 0x65B DUP6 DUP3 DUP7 ADD PUSH2 0x5F4 JUMP JUMPDEST SWAP3 POP POP PUSH1 0x20 PUSH2 0x66C DUP6 DUP3 DUP7 ADD PUSH2 0x5F4 JUMP JUMPDEST SWAP2 POP POP SWAP3 POP SWAP3 SWAP1 POP JUMP JUMPDEST PUSH1 0x0 PUSH2 0x682 DUP4 DUP4 PUSH2 0x70F JUMP JUMPDEST PUSH1 0x20 DUP4 ADD SWAP1 POP SWAP3 SWAP2 POP POP JUMP JUMPDEST PUSH1 0x0 PUSH2 0x699 DUP3 PUSH2 0x7E6 JUMP JUMPDEST PUSH2 0x6A3 DUP2 DUP6 PUSH2 0x7FE JUMP JUMPDEST SWAP4 POP PUSH2 0x6AE DUP4 PUSH2 0x7D6 JUMP JUMPDEST DUP1 PUSH1 0x0 JUMPDEST DUP4 DUP2 LT ISZERO PUSH2 0x6DF JUMPI DUP2 MLOAD PUSH2 0x6C6 DUP9 DUP3 PUSH2 0x676 JUMP JUMPDEST SWAP8 POP PUSH2 0x6D1 DUP4 PUSH2 0x7F1 JUMP JUMPDEST SWAP3 POP POP PUSH1 0x1 DUP2 ADD SWAP1 POP PUSH2 0x6B2 JUMP JUMPDEST POP DUP6 SWAP4 POP POP POP POP SWAP3 SWAP2 POP POP JUMP JUMPDEST PUSH1 0x0 PUSH2 0x6F9 PUSH1 0x1D DUP4 PUSH2 0x80F JUMP JUMPDEST SWAP2 POP PUSH2 0x704 DUP3 PUSH2 0x9A2 JUMP JUMPDEST PUSH1 0x20 DUP3 ADD SWAP1 POP SWAP2 SWAP1 POP JUMP JUMPDEST PUSH2 0x718 DUP2 PUSH2 0x935 JUMP JUMPDEST DUP3 MSTORE POP POP JUMP JUMPDEST PUSH2 0x727 DUP2 PUSH2 0x935 JUMP JUMPDEST DUP3 MSTORE POP POP JUMP JUMPDEST PUSH1 0x0 PUSH1 0x20 DUP3 ADD SWAP1 POP DUP2 DUP2 SUB PUSH1 0x0 DUP4 ADD MSTORE PUSH2 0x747 DUP2 DUP5 PUSH2 0x68E JUMP JUMPDEST SWAP1 POP SWAP3 SWAP2 POP POP JUMP JUMPDEST PUSH1 0x0 PUSH1 0x60 DUP3 ADD SWAP1 POP DUP2 DUP2 SUB PUSH1 0x0 DUP4 ADD MSTORE PUSH2 0x769 DUP2 DUP7 PUSH2 0x68E JUMP JUMPDEST SWAP1 POP DUP2 DUP2 SUB PUSH1 0x20 DUP4 ADD MSTORE PUSH2 0x77D DUP2 DUP6 PUSH2 0x68E JUMP JUMPDEST SWAP1 POP DUP2 DUP2 SUB PUSH1 0x40 DUP4 ADD MSTORE PUSH2 0x791 DUP2 DUP5 PUSH2 0x68E JUMP JUMPDEST SWAP1 POP SWAP5 SWAP4 POP POP POP POP JUMP JUMPDEST PUSH1 0x0 PUSH1 0x20 DUP3 ADD SWAP1 POP DUP2 DUP2 SUB PUSH1 0x0 DUP4 ADD MSTORE PUSH2 0x7B4 DUP2 PUSH2 0x6EC JUMP JUMPDEST SWAP1 POP SWAP2 SWAP1 POP JUMP JUMPDEST PUSH1 0x0 PUSH1 0x20 DUP3 ADD SWAP1 POP PUSH2 0x7D0 PUSH1 0x0 DUP4 ADD DUP5 PUSH2 0x71E JUMP JUMPDEST SWAP3 SWAP2 POP POP JUMP JUMPDEST PUSH1 0x0 DUP2 SWAP1 POP PUSH1 0x20 DUP3 ADD SWAP1 POP SWAP2 SWAP1 POP JUMP JUMPDEST PUSH1 0x0 DUP2 MLOAD SWAP1 POP SWAP2 SWAP1 POP JUMP JUMPDEST PUSH1 0x0 PUSH1 0x20 DUP3 ADD SWAP1 POP SWAP2 SWAP1 POP JUMP JUMPDEST PUSH1 0x0 DUP3 DUP3 MSTORE PUSH1 0x20 DUP3 ADD SWAP1 POP SWAP3 SWAP2 POP POP JUMP JUMPDEST PUSH1 0x0 DUP3 DUP3 MSTORE PUSH1 0x20 DUP3 ADD SWAP1 POP SWAP3 SWAP2 POP POP JUMP JUMPDEST PUSH1 0x0 PUSH2 0x82B DUP3 PUSH2 0x935 JUMP JUMPDEST SWAP2 POP PUSH2 0x836 DUP4 PUSH2 0x935 JUMP JUMPDEST SWAP3 POP DUP3 PUSH32 0xFFFFFFFFFFFFFFFFFFFFFFFFFFFFFFFFFFFFFFFFFFFFFFFFFFFFFFFFFFFFFFFF SUB DUP3 GT ISZERO PUSH2 0x86B JUMPI PUSH2 0x86A PUSH2 0x93F JUMP JUMPDEST JUMPDEST DUP3 DUP3 ADD SWAP1 POP SWAP3 SWAP2 POP POP JUMP JUMPDEST PUSH1 0x0 PUSH2 0x881 DUP3 PUSH2 0x935 JUMP JUMPDEST SWAP2 POP PUSH2 0x88C DUP4 PUSH2 0x935 JUMP JUMPDEST SWAP3 POP DUP3 PUSH2 0x89C JUMPI PUSH2 0x89B PUSH2 0x96E JUMP JUMPDEST JUMPDEST DUP3 DUP3 DIV SWAP1 POP SWAP3 SWAP2 POP POP JUMP JUMPDEST PUSH1 0x0 PUSH2 0x8B2 DUP3 PUSH2 0x935 JUMP JUMPDEST SWAP2 POP PUSH2 0x8BD DUP4 PUSH2 0x935 JUMP JUMPDEST SWAP3 POP DUP2 PUSH32 0xFFFFFFFFFFFFFFFFFFFFFFFFFFFFFFFFFFFFFFFFFFFFFFFFFFFFFFFFFFFFFFFF DIV DUP4 GT DUP3 ISZERO ISZERO AND ISZERO PUSH2 0x8F6 JUMPI PUSH2 0x8F5 PUSH2 0x93F JUMP JUMPDEST JUMPDEST DUP3 DUP3 MUL SWAP1 POP SWAP3 SWAP2 POP POP JUMP JUMPDEST PUSH1 0x0 PUSH2 0x90C DUP3 PUSH2 0x935 JUMP JUMPDEST SWAP2 POP PUSH2 0x917 DUP4 PUSH2 0x935 JUMP JUMPDEST SWAP3 POP DUP3 DUP3 LT ISZERO PUSH2 0x92A JUMPI PUSH2 0x929 PUSH2 0x93F JUMP JUMPDEST JUMPDEST DUP3 DUP3 SUB SWAP1 POP SWAP3 SWAP2 POP POP JUMP JUMPDEST PUSH1 0x0 DUP2 SWAP1 POP SWAP2 SWAP1 POP JUMP JUMPDEST PUSH32 0x4E487B7100000000000000000000000000000000000000000000000000000000 PUSH1 0x0 MSTORE PUSH1 0x11 PUSH1 0x4 MSTORE PUSH1 0x24 PUSH1 0x0 REVERT JUMPDEST PUSH32 0x4E487B7100000000000000000000000000000000000000000000000000000000 PUSH1 0x0 MSTORE PUSH1 0x12 PUSH1 0x4 MSTORE PUSH1 0x24 PUSH1 0x0 REVERT JUMPDEST PUSH1 0x0 DUP1 REVERT JUMPDEST PUSH32 0x4469766973696F6E206279207A65726F206E6F7420706F737369626C65000000 PUSH1 0x0 DUP3 ADD MSTORE POP JUMP JUMPDEST PUSH2 0x9D4 DUP2 PUSH2 0x935 JUMP JUMPDEST DUP2 EQ PUSH2 0x9DF JUMPI PUSH1 0x0 DUP1 REVERT JUMPDEST POP JUMP INVALID LOG2 PUSH5 0x6970667358 0x22 SLT KECCAK256 0xDC PUSH21 0x98902DE11BF943DFEDF4E8CD0A273C3EFEB290366B LOG1 PUSH17 0x2541FD9829BFE264736F6C634300080700 CALLER "
				},
				"gasEstimates": {
					"creation": {
						"codeDepositCost": "516800",
						"executionCost": "15567",
						"totalCost": "532367"
					},
					"external": {
						"MINT(uint256,uint256)": "infinite",
						"SELL(uint256)": "infinite",
						"add(uint256,uint256)": "infinite",
						"check_balance()": "2437",
						"devide(uint256,uint256)": "infinite",
						"get()": "2482",
						"multiply(uint256,uint256)": "infinite",
						"passbook_viewer()": "infinite",
						"sell_history()": "infinite",
						"show_record()": "infinite",
						"sub(uint256,uint256)": "infinite"
					}
				},
				"methodIdentifiers": {
					"MINT(uint256,uint256)": "d996551a",
					"SELL(uint256)": "b5042bae",
					"add(uint256,uint256)": "771602f7",
					"check_balance()": "98ba1d46",
					"devide(uint256,uint256)": "e9581c62",
					"get()": "6d4ce63c",
					"multiply(uint256,uint256)": "165c4a16",
					"passbook_viewer()": "b6292e62",
					"sell_history()": "06733c71",
					"show_record()": "6e9d856c",
					"sub(uint256,uint256)": "b67d77c5"
				}
			},
			"userdoc": {
				"kind": "user",
				"methods": {},
				"version": 1
			}
		}
	}
}